{
    "contractName": "IobToken",
    "abi": [
        {
            "inputs": [
                {
                    "internalType": "string",
                    "name": "name",
                    "type": "string"
                },
                {
                    "internalType": "string",
                    "name": "symbol",
                    "type": "string"
                },
                {
                    "internalType": "uint256",
                    "name": "initialSupply",
                    "type": "uint256"
                }
            ],
            "stateMutability": "nonpayable",
            "type": "constructor"
        },
        {
            "anonymous": false,
            "inputs": [
                {
                    "indexed": true,
                    "internalType": "address",
                    "name": "owner",
                    "type": "address"
                },
                {
                    "indexed": true,
                    "internalType": "address",
                    "name": "spender",
                    "type": "address"
                },
                {
                    "indexed": false,
                    "internalType": "uint256",
                    "name": "value",
                    "type": "uint256"
                }
            ],
            "name": "Approval",
            "type": "event"
        },
        {
            "anonymous": false,
            "inputs": [
                {
                    "indexed": true,
                    "internalType": "address",
                    "name": "previousOwner",
                    "type": "address"
                },
                {
                    "indexed": true,
                    "internalType": "address",
                    "name": "newOwner",
                    "type": "address"
                }
            ],
            "name": "OwnershipTransferred",
            "type": "event"
        },
        {
            "anonymous": false,
            "inputs": [
                {
                    "indexed": true,
                    "internalType": "address",
                    "name": "from",
                    "type": "address"
                },
                {
                    "indexed": true,
                    "internalType": "address",
                    "name": "to",
                    "type": "address"
                },
                {
                    "indexed": false,
                    "internalType": "uint256",
                    "name": "value",
                    "type": "uint256"
                }
            ],
            "name": "Transfer",
            "type": "event"
        },
        {
            "inputs": [
                {
                    "internalType": "address",
                    "name": "owner",
                    "type": "address"
                },
                {
                    "internalType": "address",
                    "name": "spender",
                    "type": "address"
                }
            ],
            "name": "allowance",
            "outputs": [
                {
                    "internalType": "uint256",
                    "name": "",
                    "type": "uint256"
                }
            ],
            "stateMutability": "view",
            "type": "function"
        },
        {
            "inputs": [
                {
                    "internalType": "address",
                    "name": "spender",
                    "type": "address"
                },
                {
                    "internalType": "uint256",
                    "name": "amount",
                    "type": "uint256"
                }
            ],
            "name": "approve",
            "outputs": [
                {
                    "internalType": "bool",
                    "name": "",
                    "type": "bool"
                }
            ],
            "stateMutability": "nonpayable",
            "type": "function"
        },
        {
            "inputs": [
                {
                    "internalType": "address",
                    "name": "account",
                    "type": "address"
                }
            ],
            "name": "balanceOf",
            "outputs": [
                {
                    "internalType": "uint256",
                    "name": "",
                    "type": "uint256"
                }
            ],
            "stateMutability": "view",
            "type": "function"
        },
        {
            "inputs": [
                {
                    "internalType": "address",
                    "name": "account",
                    "type": "address"
                },
                {
                    "internalType": "uint256",
                    "name": "amount",
                    "type": "uint256"
                }
            ],
            "name": "burn",
            "outputs": [],
            "stateMutability": "nonpayable",
            "type": "function"
        },
        {
            "inputs": [],
            "name": "decimals",
            "outputs": [
                {
                    "internalType": "uint8",
                    "name": "",
                    "type": "uint8"
                }
            ],
            "stateMutability": "view",
            "type": "function"
        },
        {
            "inputs": [
                {
                    "internalType": "address",
                    "name": "spender",
                    "type": "address"
                },
                {
                    "internalType": "uint256",
                    "name": "subtractedValue",
                    "type": "uint256"
                }
            ],
            "name": "decreaseAllowance",
            "outputs": [
                {
                    "internalType": "bool",
                    "name": "",
                    "type": "bool"
                }
            ],
            "stateMutability": "nonpayable",
            "type": "function"
        },
        {
            "inputs": [],
            "name": "getOwner",
            "outputs": [
                {
                    "internalType": "address",
                    "name": "",
                    "type": "address"
                }
            ],
            "stateMutability": "view",
            "type": "function"
        },
        {
            "inputs": [
                {
                    "internalType": "address",
                    "name": "spender",
                    "type": "address"
                },
                {
                    "internalType": "uint256",
                    "name": "addedValue",
                    "type": "uint256"
                }
            ],
            "name": "increaseAllowance",
            "outputs": [
                {
                    "internalType": "bool",
                    "name": "",
                    "type": "bool"
                }
            ],
            "stateMutability": "nonpayable",
            "type": "function"
        },
        {
            "inputs": [
                {
                    "internalType": "address",
                    "name": "account",
                    "type": "address"
                },
                {
                    "internalType": "uint256",
                    "name": "amount",
                    "type": "uint256"
                }
            ],
            "name": "mint",
            "outputs": [],
            "stateMutability": "nonpayable",
            "type": "function"
        },
        {
            "inputs": [],
            "name": "name",
            "outputs": [
                {
                    "internalType": "string",
                    "name": "",
                    "type": "string"
                }
            ],
            "stateMutability": "view",
            "type": "function"
        },
        {
            "inputs": [],
            "name": "symbol",
            "outputs": [
                {
                    "internalType": "string",
                    "name": "",
                    "type": "string"
                }
            ],
            "stateMutability": "view",
            "type": "function"
        },
        {
            "inputs": [],
            "name": "totalSupply",
            "outputs": [
                {
                    "internalType": "uint256",
                    "name": "",
                    "type": "uint256"
                }
            ],
            "stateMutability": "view",
            "type": "function"
        },
        {
            "inputs": [
                {
                    "internalType": "address",
                    "name": "recipient",
                    "type": "address"
                },
                {
                    "internalType": "uint256",
                    "name": "amount",
                    "type": "uint256"
                }
            ],
            "name": "transfer",
            "outputs": [
                {
                    "internalType": "bool",
                    "name": "",
                    "type": "bool"
                }
            ],
            "stateMutability": "nonpayable",
            "type": "function"
        },
        {
            "inputs": [
                {
                    "internalType": "address",
                    "name": "sender",
                    "type": "address"
                },
                {
                    "internalType": "address",
                    "name": "recipient",
                    "type": "address"
                },
                {
                    "internalType": "uint256",
                    "name": "amount",
                    "type": "uint256"
                }
            ],
            "name": "transferFrom",
            "outputs": [
                {
                    "internalType": "bool",
                    "name": "",
                    "type": "bool"
                }
            ],
            "stateMutability": "nonpayable",
            "type": "function"
        },
        {
            "inputs": [
                {
                    "internalType": "address",
                    "name": "newOwner",
                    "type": "address"
                }
            ],
            "name": "transferOwnership",
            "outputs": [],
            "stateMutability": "nonpayable",
            "type": "function"
        }
    ],
    "bytecode": "60806040523480156200001157600080fd5b506040516200123b3803806200123b8339810160408190526200003491620002ba565b8251839083906200004d90600390602085019062000169565b5080516200006390600490602084019062000169565b5050600580546001600160a01b031916339081179091556200008791508262000090565b505050620003e2565b6001600160a01b038216620000c25760405162461bcd60e51b8152600401620000b9906200032a565b60405180910390fd5b620000d06000838362000164565b8060026000828254620000e491906200036a565b90915550506001600160a01b03821660009081526020819052604081208054839290620001139084906200036a565b90915550506040516001600160a01b038316906000907fddf252ad1be2c89b69c2b068fc378daa952ba7f163c4a11628f55a4df523b3ef906200015890859062000361565b60405180910390a35050565b505050565b82805462000177906200038f565b90600052602060002090601f0160209004810192826200019b5760008555620001e6565b82601f10620001b657805160ff1916838001178555620001e6565b82800160010185558215620001e6579182015b82811115620001e6578251825591602001919060010190620001c9565b50620001f4929150620001f8565b5090565b5b80821115620001f45760008155600101620001f9565b600082601f83011262000220578081fd5b81516001600160401b03808211156200023d576200023d620003cc565b6040516020601f8401601f1916820181018381118382101715620002655762000265620003cc565b60405283825285840181018710156200027c578485fd5b8492505b838310156200029f578583018101518284018201529182019162000280565b83831115620002b057848185840101525b5095945050505050565b600080600060608486031215620002cf578283fd5b83516001600160401b0380821115620002e6578485fd5b620002f4878388016200020f565b945060208601519150808211156200030a578384fd5b5062000319868287016200020f565b925050604084015190509250925092565b6020808252601f908201527f45524332303a206d696e7420746f20746865207a65726f206164647265737300604082015260600190565b90815260200190565b600082198211156200038a57634e487b7160e01b81526011600452602481fd5b500190565b600281046001821680620003a457607f821691505b60208210811415620003c657634e487b7160e01b600052602260045260246000fd5b50919050565b634e487b7160e01b600052604160045260246000fd5b610e4980620003f26000396000f3fe608060405234801561001057600080fd5b50600436106100f55760003560e01c806370a0823111610097578063a457c2d711610066578063a457c2d7146101e0578063a9059cbb146101f3578063dd62ed3e14610206578063f2fde38b14610219576100f5565b806370a082311461019d578063893d20e8146101b057806395d89b41146101c55780639dc29fac146101cd576100f5565b806323b872dd116100d357806323b872dd1461014d578063313ce56714610160578063395093511461017557806340c10f1914610188576100f5565b806306fdde03146100fa578063095ea7b31461011857806318160ddd14610138575b600080fd5b61010261022c565b60405161010f9190610a49565b60405180910390f35b61012b610126366004610a01565b6102be565b60405161010f9190610a3e565b6101406102db565b60405161010f9190610d7c565b61012b61015b3660046109c6565b6102e1565b610168610381565b60405161010f9190610d85565b61012b610183366004610a01565b610386565b61019b610196366004610a01565b6103d5565b005b6101406101ab366004610973565b61040d565b6101b861042c565b60405161010f9190610a2a565b61010261043b565b61019b6101db366004610a01565b61044a565b61012b6101ee366004610a01565b61047e565b61012b610201366004610a01565b6104f9565b610140610214366004610994565b61050d565b61019b610227366004610973565b610538565b60606003805461023b90610dc2565b80601f016020809104026020016040519081016040528092919081815260200182805461026790610dc2565b80156102b45780601f10610289576101008083540402835291602001916102b4565b820191906000526020600020905b81548152906001019060200180831161029757829003601f168201915b5050505050905090565b60006102d26102cb6105d1565b84846105d5565b50600192915050565b60025490565b60006102ee848484610689565b6001600160a01b03841660009081526001602052604081208161030f6105d1565b6001600160a01b03166001600160a01b031681526020019081526020016000205490508281101561035b5760405162461bcd60e51b815260040161035290610ba9565b60405180910390fd5b610376856103676105d1565b6103718685610dab565b6105d5565b506001949350505050565b601290565b60006102d26103936105d1565b8484600160006103a16105d1565b6001600160a01b03908116825260208083019390935260409182016000908120918b16815292529020546103719190610d93565b6005546001600160a01b031633146103ff5760405162461bcd60e51b815260040161035290610cbb565b61040982826107b1565b5050565b6001600160a01b0381166000908152602081905260409020545b919050565b6005546001600160a01b031690565b60606004805461023b90610dc2565b6005546001600160a01b031633146104745760405162461bcd60e51b815260040161035290610cbb565b6104098282610871565b6000806001600061048d6105d1565b6001600160a01b03908116825260208083019390935260409182016000908120918816815292529020549050828110156104d95760405162461bcd60e51b815260040161035290610d00565b6104ef6104e46105d1565b856103718685610dab565b5060019392505050565b60006102d26105066105d1565b8484610689565b6001600160a01b03918216600090815260016020908152604080832093909416825291909152205490565b6005546001600160a01b031633146105625760405162461bcd60e51b815260040161035290610cbb565b6001600160a01b03811661057557600080fd5b6005546040516001600160a01b038084169216907f8be0079c531659141344cd1fd0a4f28419497f9722a3daafe3b4186f6b6457e090600090a3600580546001600160a01b0319166001600160a01b0392909216919091179055565b3390565b6001600160a01b0383166105fb5760405162461bcd60e51b815260040161035290610c77565b6001600160a01b0382166106215760405162461bcd60e51b815260040161035290610b21565b6001600160a01b0380841660008181526001602090815260408083209487168084529490915290819020849055517f8c5be1e5ebec7d5bd14f71427d1e84f3dd0314c0f7b2291e5b200ac8c7c3b9259061067c908590610d7c565b60405180910390a3505050565b6001600160a01b0383166106af5760405162461bcd60e51b815260040161035290610c32565b6001600160a01b0382166106d55760405162461bcd60e51b815260040161035290610a9c565b6106e0838383610957565b6001600160a01b038316600090815260208190526040902054818110156107195760405162461bcd60e51b815260040161035290610b63565b6107238282610dab565b6001600160a01b038086166000908152602081905260408082209390935590851681529081208054849290610759908490610d93565b92505081905550826001600160a01b0316846001600160a01b03167fddf252ad1be2c89b69c2b068fc378daa952ba7f163c4a11628f55a4df523b3ef846040516107a39190610d7c565b60405180910390a350505050565b6001600160a01b0382166107d75760405162461bcd60e51b815260040161035290610d45565b6107e360008383610957565b80600260008282546107f59190610d93565b90915550506001600160a01b03821660009081526020819052604081208054839290610822908490610d93565b90915550506040516001600160a01b038316906000907fddf252ad1be2c89b69c2b068fc378daa952ba7f163c4a11628f55a4df523b3ef90610865908590610d7c565b60405180910390a35050565b6001600160a01b0382166108975760405162461bcd60e51b815260040161035290610bf1565b6108a382600083610957565b6001600160a01b038216600090815260208190526040902054818110156108dc5760405162461bcd60e51b815260040161035290610adf565b6108e68282610dab565b6001600160a01b03841660009081526020819052604081209190915560028054849290610914908490610dab565b90915550506040516000906001600160a01b038516907fddf252ad1be2c89b69c2b068fc378daa952ba7f163c4a11628f55a4df523b3ef9061067c908690610d7c565b505050565b80356001600160a01b038116811461042757600080fd5b600060208284031215610984578081fd5b61098d8261095c565b9392505050565b600080604083850312156109a6578081fd5b6109af8361095c565b91506109bd6020840161095c565b90509250929050565b6000806000606084860312156109da578081fd5b6109e38461095c565b92506109f16020850161095c565b9150604084013590509250925092565b60008060408385031215610a13578182fd5b610a1c8361095c565b946020939093013593505050565b6001600160a01b0391909116815260200190565b901515815260200190565b6000602080835283518082850152825b81811015610a7557858101830151858201604001528201610a59565b81811115610a865783604083870101525b50601f01601f1916929092016040019392505050565b60208082526023908201527f45524332303a207472616e7366657220746f20746865207a65726f206164647260408201526265737360e81b606082015260800190565b60208082526022908201527f45524332303a206275726e20616d6f756e7420657863656564732062616c616e604082015261636560f01b606082015260800190565b60208082526022908201527f45524332303a20617070726f766520746f20746865207a65726f206164647265604082015261737360f01b606082015260800190565b60208082526026908201527f45524332303a207472616e7366657220616d6f756e7420657863656564732062604082015265616c616e636560d01b606082015260800190565b60208082526028908201527f45524332303a207472616e7366657220616d6f756e74206578636565647320616040820152676c6c6f77616e636560c01b606082015260800190565b60208082526021908201527f45524332303a206275726e2066726f6d20746865207a65726f206164647265736040820152607360f81b606082015260800190565b60208082526025908201527f45524332303a207472616e736665722066726f6d20746865207a65726f206164604082015264647265737360d81b606082015260800190565b60208082526024908201527f45524332303a20617070726f76652066726f6d20746865207a65726f206164646040820152637265737360e01b606082015260800190565b60208082526025908201527f46756e6374696f6e20726573657276656420666f7220636f6e7472616374206f6040820152643bb732b91760d91b606082015260800190565b60208082526025908201527f45524332303a2064656372656173656420616c6c6f77616e63652062656c6f77604082015264207a65726f60d81b606082015260800190565b6020808252601f908201527f45524332303a206d696e7420746f20746865207a65726f206164647265737300604082015260600190565b90815260200190565b60ff91909116815260200190565b60008219821115610da657610da6610dfd565b500190565b600082821015610dbd57610dbd610dfd565b500390565b600281046001821680610dd657607f821691505b60208210811415610df757634e487b7160e01b600052602260045260246000fd5b50919050565b634e487b7160e01b600052601160045260246000fdfea264697066735822122052d0f89e967942ca0a12101ca1da27b741cc88f48524e40abf2d1c898a7fec6d64736f6c63430008000033",
    "sourcePath": "/Users/ppolo/Documents/Mis Proyectos/IoBuilders/Prueba Tecnica/MoneyTokenizerContracts/contracts/IobToken.sol",
    "compiler": {
        "name": "solc",
        "version": "0.8.0+commit.c7dfd78e"
    },
    "functionHashes": {
        "allowance(address,address)": "dd62ed3e",
        "approve(address,uint256)": "095ea7b3",
        "balanceOf(address)": "70a08231",
        "burn(address,uint256)": "9dc29fac",
        "decimals()": "313ce567",
        "decreaseAllowance(address,uint256)": "a457c2d7",
        "getOwner()": "893d20e8",
        "increaseAllowance(address,uint256)": "39509351",
        "mint(address,uint256)": "40c10f19",
        "name()": "06fdde03",
        "symbol()": "95d89b41",
        "totalSupply()": "18160ddd",
        "transfer(address,uint256)": "a9059cbb",
        "transferFrom(address,address,uint256)": "23b872dd",
        "transferOwnership(address)": "f2fde38b"
    },
    "gasEstimates": {
        "creation": {
            "codeDepositCost": "731400",
            "executionCost": "infinite",
            "totalCost": "infinite"
        },
        "external": {
            "allowance(address,address)": "infinite",
            "approve(address,uint256)": "22629",
            "balanceOf(address)": "infinite",
            "burn(address,uint256)": "infinite",
            "decimals()": "285",
            "decreaseAllowance(address,uint256)": "infinite",
            "getOwner()": "1115",
            "increaseAllowance(address,uint256)": "infinite",
            "mint(address,uint256)": "infinite",
            "name()": "infinite",
            "symbol()": "infinite",
            "totalSupply()": "1096",
            "transfer(address,uint256)": "44578",
            "transferFrom(address,address,uint256)": "infinite",
            "transferOwnership(address)": "24488"
        }
    }
}