{
    "contractName": "IobWallet",
    "abi": [
        {
            "inputs": [
                {
                    "internalType": "uint256",
                    "name": "rate",
                    "type": "uint256"
                },
                {
                    "internalType": "contract IERC20",
                    "name": "token",
                    "type": "address"
                }
            ],
            "stateMutability": "nonpayable",
            "type": "constructor"
        },
        {
            "anonymous": false,
            "inputs": [
                {
                    "indexed": true,
                    "internalType": "address",
                    "name": "previousOwner",
                    "type": "address"
                },
                {
                    "indexed": true,
                    "internalType": "address",
                    "name": "newOwner",
                    "type": "address"
                }
            ],
            "name": "OwnershipTransferred",
            "type": "event"
        },
        {
            "anonymous": false,
            "inputs": [
                {
                    "indexed": false,
                    "internalType": "address",
                    "name": "account",
                    "type": "address"
                }
            ],
            "name": "Paused",
            "type": "event"
        },
        {
            "anonymous": false,
            "inputs": [
                {
                    "indexed": false,
                    "internalType": "address",
                    "name": "account",
                    "type": "address"
                }
            ],
            "name": "Unpaused",
            "type": "event"
        },
        {
            "inputs": [
                {
                    "internalType": "uint256",
                    "name": "amount",
                    "type": "uint256"
                }
            ],
            "name": "burnTokens",
            "outputs": [],
            "stateMutability": "nonpayable",
            "type": "function"
        },
        {
            "inputs": [],
            "name": "buy",
            "outputs": [],
            "stateMutability": "payable",
            "type": "function"
        },
        {
            "inputs": [],
            "name": "getOwner",
            "outputs": [
                {
                    "internalType": "address",
                    "name": "",
                    "type": "address"
                }
            ],
            "stateMutability": "view",
            "type": "function"
        },
        {
            "inputs": [],
            "name": "getRate",
            "outputs": [
                {
                    "internalType": "uint256",
                    "name": "",
                    "type": "uint256"
                }
            ],
            "stateMutability": "view",
            "type": "function"
        },
        {
            "inputs": [],
            "name": "getTokenAddress",
            "outputs": [
                {
                    "internalType": "address",
                    "name": "",
                    "type": "address"
                }
            ],
            "stateMutability": "view",
            "type": "function"
        },
        {
            "inputs": [
                {
                    "internalType": "uint256",
                    "name": "amount",
                    "type": "uint256"
                }
            ],
            "name": "mintTokens",
            "outputs": [],
            "stateMutability": "nonpayable",
            "type": "function"
        },
        {
            "inputs": [],
            "name": "pause",
            "outputs": [],
            "stateMutability": "nonpayable",
            "type": "function"
        },
        {
            "inputs": [],
            "name": "paused",
            "outputs": [
                {
                    "internalType": "bool",
                    "name": "",
                    "type": "bool"
                }
            ],
            "stateMutability": "view",
            "type": "function"
        },
        {
            "inputs": [
                {
                    "internalType": "uint256",
                    "name": "amount",
                    "type": "uint256"
                }
            ],
            "name": "sell",
            "outputs": [],
            "stateMutability": "nonpayable",
            "type": "function"
        },
        {
            "inputs": [
                {
                    "internalType": "address",
                    "name": "newOwner",
                    "type": "address"
                }
            ],
            "name": "transferOwnership",
            "outputs": [],
            "stateMutability": "nonpayable",
            "type": "function"
        },
        {
            "inputs": [],
            "name": "unpause",
            "outputs": [],
            "stateMutability": "nonpayable",
            "type": "function"
        }
    ],
    "bytecode": "608060405234801561001057600080fd5b50604051610cdc380380610cdc83398101604081905261002f916100c0565b6000805460ff60a01b196001600160a01b03199091163317169055816100705760405162461bcd60e51b81526004016100679061013f565b60405180910390fd5b6001600160a01b0381166100965760405162461bcd60e51b8152600401610067906100fb565b600291909155600180546001600160a01b0319166001600160a01b03909216919091179055610176565b600080604083850312156100d2578182fd5b825160208401519092506001600160a01b03811681146100f0578182fd5b809150509250929050565b60208082526024908201527f496f6257616c6c65743a20746f6b656e20697320746865207a65726f206164646040820152637265737360e01b606082015260800190565b60208082526014908201527f496f6257616c6c65743a20726174652069732030000000000000000000000000604082015260600190565b610b57806101856000396000f3fe60806040526004361061009c5760003560e01c80638456cb59116100645780638456cb5914610147578063893d20e81461015c57806397304ced14610171578063a6f2ae3a14610191578063e4849b3214610199578063f2fde38b146101b95761009c565b806310fe9ae8146100a15780633f4ba83a146100cc5780635c975abb146100e3578063679aefce146101055780636d1b229d14610127575b600080fd5b3480156100ad57600080fd5b506100b66101d9565b6040516100c391906108d2565b60405180910390f35b3480156100d857600080fd5b506100e16101e8565b005b3480156100ef57600080fd5b506100f861028b565b6040516100c3919061093d565b34801561011157600080fd5b5061011a61029b565b6040516100c39190610acd565b34801561013357600080fd5b506100e16101423660046108a2565b6102a1565b34801561015357600080fd5b506100e1610332565b34801561016857600080fd5b506100b66103c9565b34801561017d57600080fd5b506100e161018c3660046108a2565b6103d8565b6100e1610434565b3480156101a557600080fd5b506100e16101b43660046108a2565b6105b7565b3480156101c557600080fd5b506100e16101d436600461085b565b610770565b6001546001600160a01b031690565b6000546001600160a01b0316331461021b5760405162461bcd60e51b815260040161021290610a1c565b60405180910390fd5b600054600160a01b900460ff166102445760405162461bcd60e51b815260040161021290610948565b6000805460ff60a01b191690556040517f5db9ee0a495bf2e6ff9c91a7834c1ba4fdd244a5e8aa4e537bd38aeae4b073aa906102819033906108d2565b60405180910390a1565b600054600160a01b900460ff1690565b60025490565b6000546001600160a01b031633146102cb5760405162461bcd60e51b815260040161021290610a1c565b600154604051632770a7eb60e21b81526001600160a01b0390911690639dc29fac906102fd9030908590600401610924565b600060405180830381600087803b15801561031757600080fd5b505af115801561032b573d6000803e3d6000fd5b5050505050565b6000546001600160a01b0316331461035c5760405162461bcd60e51b815260040161021290610a1c565b600054600160a01b900460ff16156103865760405162461bcd60e51b8152600401610212906109bb565b6000805460ff60a01b1916600160a01b1790556040517f62e78cea01bee320cd4e420270b5ea74000d11b0c9f74754ebdbfc544b05a258906102819033906108d2565b6000546001600160a01b031690565b6000546001600160a01b031633146104025760405162461bcd60e51b815260040161021290610a1c565b6001546040516340c10f1960e01b81526001600160a01b03909116906340c10f19906102fd9030908590600401610924565b600054600160a01b900460ff161561045e5760405162461bcd60e51b8152600401610212906109bb565b600061046934610808565b90506000811161048b5760405162461bcd60e51b815260040161021290610a96565b6001546040516370a0823160e01b81526000916001600160a01b0316906370a08231906104bc9030906004016108d2565b60206040518083038186803b1580156104d457600080fd5b505afa1580156104e8573d6000803e3d6000fd5b505050506040513d601f19601f8201168201806040525081019061050c91906108ba565b90508082111561052e5760405162461bcd60e51b815260040161021290610a61565b60015460405163a9059cbb60e01b81526001600160a01b039091169063a9059cbb906105609033908690600401610924565b602060405180830381600087803b15801561057a57600080fd5b505af115801561058e573d6000803e3d6000fd5b505050506040513d601f19601f820116820180604052508101906105b29190610882565b505050565b600054600160a01b900460ff16156105e15760405162461bcd60e51b8152600401610212906109bb565b600081116106015760405162461bcd60e51b815260040161021290610976565b600061060c82610825565b600154604051636eb1769f60e11b81529192506000916001600160a01b039091169063dd62ed3e9061064490339030906004016108e6565b60206040518083038186803b15801561065c57600080fd5b505afa158015610670573d6000803e3d6000fd5b505050506040513d601f19601f8201168201806040525081019061069491906108ba565b9050828110156106b65760405162461bcd60e51b8152600401610212906109e5565b6001546040516323b872dd60e01b81526001600160a01b03909116906323b872dd906106ea90339030908890600401610900565b602060405180830381600087803b15801561070457600080fd5b505af1158015610718573d6000803e3d6000fd5b505050506040513d601f19601f8201168201806040525081019061073c9190610882565b50604051339083156108fc029084906000818181858888f1935050505015801561076a573d6000803e3d6000fd5b50505050565b6000546001600160a01b0316331461079a5760405162461bcd60e51b815260040161021290610a1c565b6001600160a01b0381166107ad57600080fd5b600080546040516001600160a01b03808516939216917f8be0079c531659141344cd1fd0a4f28419497f9722a3daafe3b4186f6b6457e091a3600080546001600160a01b0319166001600160a01b0392909216919091179055565b600061081f6002548361083c90919063ffffffff16565b92915050565b600061081f6002548361084f90919063ffffffff16565b60006108488284610af6565b9392505050565b60006108488284610ad6565b60006020828403121561086c578081fd5b81356001600160a01b0381168114610848578182fd5b600060208284031215610893578081fd5b81518015158114610848578182fd5b6000602082840312156108b3578081fd5b5035919050565b6000602082840312156108cb578081fd5b5051919050565b6001600160a01b0391909116815260200190565b6001600160a01b0392831681529116602082015260400190565b6001600160a01b039384168152919092166020820152604081019190915260600190565b6001600160a01b03929092168252602082015260400190565b901515815260200190565b60208082526014908201527314185d5cd8589b194e881b9bdd081c185d5cd95960621b604082015260600190565b60208082526025908201527f596f75206e65656420746f2073656c6c206174206c6561737420736f6d6520746040820152646f6b656e7360d81b606082015260800190565b60208082526010908201526f14185d5cd8589b194e881c185d5cd95960821b604082015260600190565b60208082526019908201527f436865636b2074686520746f6b656e20616c6c6f77616e636500000000000000604082015260600190565b60208082526025908201527f46756e6374696f6e20726573657276656420666f7220636f6e7472616374206f6040820152643bb732b91760d91b606082015260800190565b6020808252818101527f4e6f7420656e6f75676820746f6b656e7320696e207468652072657365727665604082015260600190565b6020808252601b908201527f596f75206e65656420746f2073656e6420736f6d652065746865720000000000604082015260600190565b90815260200190565b600082610af157634e487b7160e01b81526012600452602481fd5b500490565b6000816000190483118215151615610b1c57634e487b7160e01b81526011600452602481fd5b50029056fea2646970667358221220556a3095981d80f550b577fb4d0c9c2a83b6d3acd2350de21f53c2cc5622e45964736f6c63430008000033",
    "sourcePath": "/Users/ppolo/Documents/Mis Proyectos/IoBuilders/Prueba Tecnica/MoneyTokenizerContracts/contracts/IobWallet.sol",
    "compiler": {
        "name": "solc",
        "version": "0.8.0+commit.c7dfd78e"
    },
    "functionHashes": {
        "burnTokens(uint256)": "6d1b229d",
        "buy()": "a6f2ae3a",
        "getOwner()": "893d20e8",
        "getRate()": "679aefce",
        "getTokenAddress()": "10fe9ae8",
        "mintTokens(uint256)": "97304ced",
        "pause()": "8456cb59",
        "paused()": "5c975abb",
        "sell(uint256)": "e4849b32",
        "transferOwnership(address)": "f2fde38b",
        "unpause()": "3f4ba83a"
    },
    "gasEstimates": {
        "creation": {
            "codeDepositCost": "580600",
            "executionCost": "infinite",
            "totalCost": "infinite"
        },
        "external": {
            "burnTokens(uint256)": "infinite",
            "buy()": "infinite",
            "getOwner()": "1092",
            "getRate()": "1095",
            "getTokenAddress()": "1071",
            "mintTokens(uint256)": "infinite",
            "pause()": "23779",
            "paused()": "1102",
            "sell(uint256)": "infinite",
            "transferOwnership(address)": "24475",
            "unpause()": "23787"
        },
        "internal": {
            "_getTokenAmount(uint256)": "infinite",
            "_getWeiAmount(uint256)": "infinite"
        }
    }
}